:020000040800F2
:10000000380700208901000871100008511000080D
:1000100061100008750E0008951900080000000026
:10002000000000000000000000000000A111000816
:10003000850E000800000000731000088D120008F3
:10004000A3010008A3010008A3010008A301000800
:10005000A3010008A3010008A3010008A3010008F0
:10006000A3010008A3010008A3010008A3010008E0
:10007000A3010008A3010008A3010008A3010008D0
:10008000A3010008A3010008A3010008A3010008C0
:10009000A3010008A3010008A3010008A3010008B0
:1000A000A3010008A3010008A3010008A3010008A0
:1000B000A3010008A3010008A3010008A301000890
:1000C000A3010008A3010008A3010008A301000880
:1000D000A3010008A3010008A3010008A301000870
:1000E000A3010008A3010008A301000800F002F822
:1000F00000F03AF80AA090E8000C82448344AAF188
:100100000107DA4501D100F02FF8AFF2090EBAE885
:100110000F0013F0010F18BFFB1A43F0010318473B
:100120006423000084230000103A24BF78C878C1FB
:10013000FAD8520724BF30C830C144BF04680C60ED
:10014000704700000023002400250026103A28BF35
:1001500078C1FBD8520728BF30C148BF0B60704739
:100160001FB51FBD10B510BD00F058F81146FFF7C0
:10017000F7FF01F097FC00F076F803B4FFF7F2FF09
:1001800003BC00F07DF8000009488047094800479B
:10019000FEE7FEE7FEE7FEE7FEE7FEE7FEE7FEE737
:1001A000FEE7FEE704480549054A064B7047000094
:1001B00039130008ED00000838010020380700203E
:1001C00038030020380300204FF0000200B513462A
:1001D00094469646203922BFA0E80C50A0E80C5067
:1001E000B1F12001BFF4F7AF090728BFA0E80C5018
:1001F00048BF0CC05DF804EB890028BF40F8042B11
:1002000008BF704748BF20F8022B11F0804F18BF7D
:1002100000F8012B7047704770477047754600F033
:100220002BF8AE4605006946534620F00700854688
:1002300018B020B5FFF7B6FFBDE820404FF000062C
:100240004FF000074FF000084FF0000B21F00701BE
:10025000AC46ACE8C009ACE8C009ACE8C009ACE801
:10026000C0098D46704710B50446AFF300802046A4
:10027000BDE81040FFF781BF00487047D80000205C
:1002800001491820ABBEFEE7260002007047CA43B2
:100290000260704721B1826842F00102826003E08F
:1002A000826822F0010282607047014600208A685D
:1002B00002F004020AB1012000E00020704701466C
:1002C000C86C80B270470246002013680B400BB127
:1002D000012000E000207047014600208A6802F0FB
:1002E00008020AB1012000E00020704730B5024644
:1002F0000020002350680F4C20400D790C6844EA20
:1003000005242043506090680B4C2040D1E90254F2
:100310002C434D7944EA450420439060D06A20F490
:1003200070000C7C641EE4B2234340EA0350D062A8
:1003300030BD0000FFFEF0FFFDF7F1FFF0B5044611
:100340000D4600200021092D11DDE068A5F10A0607
:1003500006EB4607072606FA07F18843A5F10A06C9
:1003600006EB460603FA06F10843E0600CE020695C
:1003700005EB4507072606FA07F1884305EB450616
:1003800003FA06F108432061072A0FDA606B561E54
:1003900006EB86071F2606FA07F18843561E06EB72
:1003A000860605FA06F10843606322E00D2A0FDA9B
:1003B000206BD61F06EB86071F2606FA07F1884337
:1003C000D61F06EB860605FA06F10843206310E007
:1003D000E06AA2F10D0606EB86071F2606FA07F172
:1003E0008843A2F10D0606EB860605FA06F10843DE
:1003F000E062F0BD816841F008018160704721B181
:10040000826842F4A002826003E0826822F4A002C3
:1004100082607047816841F004018160704700216B
:100420000160017141718160C160012101747047F7
:1004300010B5044648212046FFF7C6FE0020207074
:1004400010BD000070B504460D462046FFF7F0FFD2
:100450000DB1012000E00020A070002106480068D6
:1004600001F05AFE04D80121204600F007F870BDC3
:100470000120207000BFFAE72800002009B90422FB
:1004800000E00522027041700022826242624264F2
:1004900002640263C26270472DE9F04F8FB00446D8
:1004A0000F464FF00008C34600200E90002620782B
:1004B00028B12078042802D02078052802D10FB076
:1004C000BDE8F08FFE48D0F800A00021504601F0B2
:1004D00023FE04D801212046FFF7D0FFEFE7514665
:1004E000F84801F00BFD8246B7F9200001F0E8FD65
:1004F0005146059001F044FE0D90B7F9220001F03D
:10050000DFFD5146059001F03BFE814649460D98BE
:1005100001F086FC4FF07C51059001F031FE0C900B
:10052000E9490D9801F0EAFC0390E16901F030FF20
:10053000E649049001F024FE0590E16901F070FCA9
:10054000E061E149484601F0D9FC0390216A01F0DD
:100550001FFFDE49049001F013FE0590216A01F0AF
:100560005FFC2062A0680A30A060E0680A30E060AA
:10057000A178A06811B147F2305101E042F2107148
:10058000884204D307212046FFF778FF97E700252C
:1005900032E037F81500B0F5FA7F2CD30120A840DF
:1005A000C0B2064308F1010837F8150001F0A0FDBC
:1005B0005946059001F034FC8346284601F098FD29
:1005C0004FF08041009001F0DBFDC149019001F046
:1005D000DFFE039037F8150001F08AFD02900399C1
:1005E00001F0CEFDBA49049001F088FC05900E9907
:1005F00001F016FC0E906D1C082DCAD30021584640
:1006000001F08AFE04D259460E9801F077FC60632F
:1006100006F0C000C02807D106F0180020B1B8F1DC
:10062000040F01D3012000E00020089006F018001C
:1006300038B106F0C30020B9B8F1040F01D8012089
:1006400000E000200790207801287DD120690C99D6
:1006500001F0E6FB20619F49206901F05DFE04D2B4
:1006600004212046FFF70AFF29E79B49206901F092
:1006700053FE05D8089818B12079401C207101E07C
:10068000002020712079032809D300206061022115
:10069000204601F0EBF99148A062606299E06EB9E2
:1006A0000020E071E063A079401CC0B2A07108286E
:1006B00025D303212046FFF7E1FE00E70020A071CB
:1006C000E079B0B1D4E90D0101F062FE7E490290FB
:1006D00001F014FC0390E16B01F05AFE4FF07A51E7
:1006E000049001F04DFD0590E16B01F099FBE06392
:1006F00001E00020E063606BA0630120E0717849B5
:10070000206901F009FE00D90EB9764800E076486C
:100710000B90606B01F046F94FF07F51039001F0B0
:100720002FFD4FF07E51049001F07AFB01460590B9
:100730000B9801F0E3FB0B906C48E16B01F020FD9E
:1007400004904FF0804000E02AE0616B01F018FD5A
:100750000390049901F064FB4FF0804251420590F0
:1007600001F02CF90A9062490A9801F009FD4FF056
:100770007C51049001F004FD05900B9901F050FBB1
:1007800060625B490A9801F0FBFC4FF07C510490D9
:1007900001F0F6FC05900B9901F0EFFDA06218E066
:1007A0002078022805D160690C9901F039FB60615D
:1007B0000FE0207803280CD149460D9801F0E8FDA0
:1007C0004B49049001F09AFB0590A16901F028FBC8
:1007D000A061207802282ED1A07810B1E0780328FB
:1007E00001D1012000E000200690069808B1002009
:1007F00000E0404809906069099901F08DFD11D829
:10080000069820B100212046FFF738FE57E6002069
:10081000A0610321204601F029F93748606237487A
:10082000A06208E0E068B0F5E16F04D3062120463D
:10083000FFF724FE43E6207803282FD13049A06932
:1008400001F06AFD09D32F49A06901F065FC04D3CA
:1008500040F6C411E068884204D305212046FFF722
:100860000DFE2CE62849A06901F056FD05D8079831
:1008700018B16079401C607101E0002060716079FE
:1008800004280BD3E078401CE07000202061012197
:10089000204601F0EBF81348A06260621B4A1C4935
:1008A000606A01F08BF86062184A1949A06A01F089
:1008B00085F8A06204F12C02E169606A2AE0000078
:1008C000280000204752543E0AD7233C9A99993E6B
:1008D0000000E0409A99993F6666263F0AD7A33DFB
:1008E00014AE473FCDCCCC3DAE47613ECDCCCC3CE9
:1008F000211FF43D8FC2753DEC51B83DEC51B8BDA0
:100900008FC2F53FCDCC4CBE6666863F7B14AE3EB3
:100910007B14AEBE01F010FA206404F13002216AAB
:10092000A06A01F009FA606400BFC8E510B510487C
:1009300000F07CFBC043C0F302340E4800788442D0
:1009400005D00C48047000200B4908700DE00A48DF
:100950000078032809D208480078401CC0B2064934
:100960000870032801D1054804700448007810BDC0
:10097000000C014036000020380000203700002025
:10098000002006E0064931F81010064A22F810103F
:10099000401C0828F6D30121034A1170704700005B
:1009A0003C0000205C00002035000020002006E014
:1009B000064931F81010064A22F81010401C082889
:1009C000F6D30121034A1170704700003C0000205B
:1009D0004C00002034000020F0B591B000F05AFC2B
:1009E00001211D2000F062FB0121072000F04EFBD9
:1009F0000121744800F0D2FA0121734800F0CEFAC8
:100A0000482248F2C001714801F03BF84822082111
:100A10006F4801F036F810224FF4E6616C4801F09F
:100A200030F84FF480616A4800F00DFB1822C021B5
:100A3000674801F026F848224FF47041644801F0FD
:100A400020F810225102634801F01BF84FF080405B
:100A500000F0DAFF604800F0D7FF05A800F036FB91
:100A6000079D5E48406800F4E06000B16D000EA88C
:100A700000F086FF5A48B5FBF0F0401E80B2ADF89A
:100A800038006320ADF83C000EA9564800F026FF60
:100A90000AA800F0E6FE6020ADF828000120ADF8BD
:100AA0002A000020ADF82E000AA94E4800F024FECE
:100AB0000AA94C4800F076FE08214A4800F068FE7A
:100AC0000821484800F0C0FE0121464800F084FD9E
:100AD00000223F213D4800F0D4FF002203213C4882
:100AE00000F0CFFF4FF4004000F0C4FA01214802AB
:100AF00000F0DCFA6846FFF792FC002000904FF40B
:100B0000602002900020039001208DF810006946BB
:100B10003548FFF7EBFB01213348FFF7BBFB00240F
:100B200001E000BF641CB4F57A7FFAD32E48FFF7CA
:100B300061FC2E4C00BF2C48FFF7CEFB10B1601EAD
:100B4000041EF8D15CB12848FFF764FC274C00BFB5
:100B50002548FFF7AAFB10B1601E041EF8D11CB98E
:100B600000212148FFF796FB214800684FF47A7274
:100B7000B0FBF2F1B1F1807F01D301201DE021F043
:100B80007F40401E4FF0E022506150170F22002896
:100B900007DA13071F0E174B00F00F06361F9F557D
:100BA00003E013071E0E144B1E5400BF00204FF02D
:100BB000E022906107201061002008B100BFFEE72D
:100BC00011B0F0BD00023000000118000008014023
:100BD000000C0140001001400004004000100240E1
:100BE00080841E000008004000240140A08601000F
:100BF0000000002018ED00E000E400E010B54FF424
:100C00000041044800F016FA08B9012010BD002088
:100C1000FCE70000000C014001480068704700003C
:100C20002C00002070B505460C4600F0C7F828B926
:100C30004FF48061104800F006FA70BD4FF07E510D
:100C4000284601F09DFA064601232022102101F0DA
:100C50000DF84FF07E51204601F092FA064600232F
:100C60004FF40072511001F001F84FF48061024816
:100C700000F0EBF900BFE0E7000C01402DE9F05F68
:100C800005464FF0804000F0D4FC8146414800F01A
:100C9000D0FC8246012240480188484600F0A2FE6E
:100CA000288401223D480188504600F09BFE68845C
:100CB0003948A0F800903948A0F800A0002465E069
:100CC000A04642F2107B00273548006800F0010082
:100CD00010B90020BDE8F09F3248015D05230122D4
:100CE0002F480838FFF72AFB02212D480838FFF764
:100CF000CEFA01212A480838FFF781FB00BF022104
:100D000027480838FFF7DFFA20B9ABF10100B0F14E
:100D1000000BF4D1BBF1000F01D10020DAE720482D
:100D20000838FFF7CCFA204921F81400084630F8BB
:100D3000141005F1100020F818101C4830F81400A9
:100D40001B4931F81410461A1A48007898B11A480D
:100D5000007880B1C82E02DA16F1C80F0BDC1248F9
:100D600030F81400124931F81410401A4FF47A7117
:100D7000484390FBF6F7002F00DA0027B7F57A7F9B
:100D800001DD4FF47A7725F81870641C082C97D38E
:100D900001209FE7000400403000002032000020C6
:100DA000082401407A2400083C0000205C00002058
:100DB0004C00002034000020350000200E48007850
:100DC00010B10E48007808B90020704700210EE0ED
:100DD0000B4830F811000B4B33F81130C21AC82AF7
:100DE00004DA12F1C80F01DD0020EEE7491C0829E2
:100DF000EED30020E9E70000340000203500002099
:100E00005C0000204C00002070B50446052C07D182
:100E1000124800689621B0FBF1F000F001050FE0E8
:100E200044B90E4800684FF41671B0FBF1F000F0C1
:100E3000010505E0042C01D0012000E0002005465A
:100E40002DB14FF40051064800F0FDF804E04FF4D6
:100E50000051034800F0F9F870BD00002C0000209C
:100E60000010014002480068401C014908607047BA
:100E70002C0000204FF480600149086000BFFEE7AD
:100E8000140C014070472DE9F04102460025002670
:100E9000002000230024002791F803C00CF00F0568
:100EA00091F803C00CF0100CBCF1000F03D091F8C6
:100EB00002C04CEA050591F800C0BCF1000F31D02A
:100EC000146800202BE04FF0010C0CFA00F3B1F88D
:100ED00000C00CEA03069E4220D183004FF00F0CA5
:100EE0000CFA03F7BC4305FA03FC4CEA040491F83E
:100EF00003C0BCF1280F06D14FF0010C0CFA00FC26
:100F0000C2F814C00AE091F803C0BCF1480F05D143
:100F10004FF0010C0CFA00FCC2F810C0401C08286D
:100F2000D1D31460B1F800C0BCF1FF0F34DD5468B8
:100F300000202EE000F1080C4FF0010808FA0CF335
:100F4000B1F800C00CEA03069E4221D183004FF0A5
:100F50000F0C0CFA03F7BC4305FA03FC4CEA04043B
:100F600091F803C0BCF1280F05D100F1080C08FA74
:100F70000CF8C2F8148091F803C0BCF1480F07D1F7
:100F800000F1080C4FF0010808FA0CF8C2F81080C4
:100F9000401C0828CED35460BDE8F081F0B50A4665
:100FA000002300240021002500F00046B6F1004F88
:100FB00002D11D4EF16901E01B4E7168C0F303457B
:100FC00083B200F44016B6F5401F08D121F07061DD
:100FD000154E766826F07066134F7E6012E000F4BE
:100FE0008016B6F5801F06D1032606FA05F4A14344
:100FF00041F0706106E0460D360103FA06F6B14392
:1010000041F0706122B1460D360103FA06F6314314
:1010100000F00046B6F1004F02D1034EF16101E04D
:10102000014E7160F0BD000000000140014688687B
:1010300080B270470246002093680B400BB101203C
:1010400000E0002070474161704701617047000077
:101050004FF480600149086000BFFEE7140C0140B6
:101060004FF480600149086000BFFEE7140C0140A6
:101070007047704701460020034A506820F4404002
:1010800008435060704700000010024029B1064A32
:10109000D2690243044BDA6104E0034AD269824315
:1010A000014BDA61704700000010024029B1064A86
:1010B00092690243044B9A6104E0034A92698243B5
:1010C000014B9A61704700000010024030B50021CA
:1010D0000022002400232D4D6D6805F00C0121B184
:1010E000042905D0082923D105E0294D056022E017
:1010F000274D05601FE0254D6D6805F47012234DE6
:101100006D6805F48034022505EB92421CB9214D2F
:10111000554305600BE01D4D6D6805F400351DB1AC
:101120001C4D5543056002E0194D5543056002E032
:10113000174D056000BF00BF144D6D6805F0F0014C
:101140000909154D6B5C0568DD4045600F4D6D6804
:1011500005F4E061090A104D6B5C4568DD4085606F
:101160000A4D6D6805F46051C90A0B4D6B5C45680A
:10117000DD40C560054D6D6805F44041890B074DA4
:101180006B5CC568B5FBF3F5056130BD001002402E
:1011900000127A0000093D00140000202400002005
:1011A000704710B500F002F810BD00000CB500202B
:1011B000019000903348006840F480303149086065
:1011C00000BF3048006800F4003000900198401CD7
:1011D0000190009818B90198B0F5A06FF1D1294895
:1011E000006800F4003010B10120009001E0002000
:1011F00000900098012843D12348006840F0100077
:10120000214908600846006820F00300086008468D
:10121000006840F0020008601A48406819494860B8
:101220000846406848600846406840F4806048606E
:101230000846406820F47C1048600846406840F446
:10124000E81048600846006840F08070086000BF01
:101250000C48006800F000700028F9D00948406888
:1012600020F00300074948600846406840F002004B
:10127000486000BF0348406800F00C000828F9D11E
:101280000CBD0000001002400020024010B5FFF726
:10129000E9FD10BD10B5002100200022214B5B6844
:1012A00003F00C0121B1042906D0082928D107E058
:1012B0001D4B1E4C236027E01B4B1C4C236023E07E
:1012C000184B5B6803F47010164B5B6803F48032B4
:1012D000022303EB904022B9154B4343134C236088
:1012E0000DE0104B5B6803F4003323B1104B434314
:1012F0000E4C236003E00C4B43430C4C236003E093
:10130000094B0A4C236000BF00BF064B5B68C3F368
:101310000313084CE15C054B1B68CB40034C236076
:1013200010BD00000010024000127A0000000020F2
:1013300000093D000400002010B51348006840F08B
:1013400001001149086008464068104908400E49EC
:101350004860084600680E4908400B490860084686
:10136000006820F4802008600846406820F4FE00F1
:1013700048604FF41F008860FFF713FF4FF00060D4
:101380000449086010BD0000001002400000FFF892
:10139000FFFFF6FE08ED00E0F0B50C461546002212
:1013A0000021068C4FF6FE773E400684028B018CAE
:1013B0004FF60C7632407E1C06EA03162E4332436B
:1013C000104EB0420ED0104EB0420BD0B0F1804F54
:1013D00008D00E4EB04205D00D4EB04202D00D4E98
:1013E000B04206D14FF6FD76314044F0010631435C
:1013F00005E04FF6F576314044F0010631430283B3
:101400000184F0BD002C0140003401400004004084
:1014100000080040000C0040F0B50C4615460022C4
:1014200000210026078C4FF6EF7C07EA0C070784A3
:10143000028B018C4FF6FF7707EA041640F6FF4750
:101440003A404FF6FF7707EA03373A434FF6FF7704
:1014500007EA05273A43114FB8420ED0104FB84261
:101460000BD0B0F1804F08D00E4FB84205D00E4FD0
:10147000B84202D00D4FB84206D14FF6DF7739405F
:1014800046F01007394305E04FF65F77394044F0E6
:101490001007394302830184F0BD0000002C014095
:1014A000003401400004004000080040000C0040EF
:1014B000F0B50C461546002200210026078C4FF699
:1014C000FF6C07EA0C070784828B018C4FF6FF77CD
:1014D00007EA04264FF60C773A404FF6FF7707EA03
:1014E00003172F433A43114FB8420ED0104FB84262
:1014F0000BD0B0F1804F08D00E4FB84205D00E4F40
:10150000B84202D00D4FB84206D14FF6FF573940CE
:1015100046F48077394305E04FF2FF57394044F4F1
:101520008077394382830184F0BD0000002C0140A4
:10153000003401400004004000080040000C00405E
:10154000F0B50C461546002200210026078C4EF609
:10155000FF7C07EA0C070784828B018C4FF6FF772C
:1015600007EA043640F6FF473A404FF6FF7707EAAE
:1015700005273A434FF6FF7707EA03373A43114FFF
:10158000B8420ED0104FB8420BD0B0F1804F08D007
:101590000E4FB84205D00E4FB84202D00D4FB842A0
:1015A00006D14DF6FF77394046F48057394305E0C0
:1015B00047F6FF57394044F480573943828301840A
:1015C000F0BD0000002C0140003401400004004048
:1015D00000080040000C004021B1028842F00102E6
:1015E000028004E002884FF6FE731A4002807047C2
:1015F000F0B50C4615461E46002100220023018945
:10160000028B038C4FF6F877394021434FF6FC47A5
:101610003A4040F201173A434FF6DD773B404FF630
:10162000FF7707EA06172F433B43018102830384B8
:10163000F0BD0146888C704770B505460C462448BD
:1016400085420ED0234885420BD0B5F1804F08D09B
:101650002148854205D02148854202D02048854254
:1016600000D100E000BF208850B92389A28861889A
:101670002846FFF791FEE188284600F002F925E0B0
:10168000208804280AD12389A28861882846FFF788
:10169000C3FEE188284600F0FDF817E020880828FE
:1016A0000AD12389A28861882846FFF701FFE188D3
:1016B000284600F0FCF809E02389A28861882846C2
:1016C000FFF73EFFE188284600F0FAF870BD000001
:1016D000002C01400034014000040040000800409C
:1016E000000C004000210180418001218180002107
:1016F000C18001817047000070B5002400220023E2
:10170000058C4FF6FE7635400584028C8388048B69
:101710004FF68F752C40B51E2C400D882C43751E3E
:101720002A400D892A434D882A43144DA8420BD0E4
:10173000134DA84208D0134DA84205D0124DA8421F
:1017400002D0124DA84213D14FF6F7752A404D89A9
:101750002A434FF6FB752A408D882A434FF6FF65D2
:101760002B404FF6FF552B408D892B43CD892B43C2
:1017700083800483CD888586028470BD002C01405F
:101780000034014000400140004401400048014055
:101790000A460021018B4FF6F7731940114301836C
:1017A0007047000070B5002400220023058C4FF61E
:1017B000EF7635400584028C8388048B48F6FF75EC
:1017C0002C404FF6FF452C400D884FF6FF7606EA79
:1017D00005252C434FF6DF752A400D8906EA0515CD
:1017E0002A434D8806EA05152A43154DA84202D022
:1017F000144DA8421DD14FF67F752A404D894FF6F2
:10180000FF7606EA05152A434FF6BF752A408D88F4
:1018100006EA05152A434FF6FF352B404FF2FF75B8
:101820002B408D8906EA85052B43CD8906EA85057F
:101830002B4383800483CD880587028470BD00001C
:10184000002C0140003401400A460021018B4FF278
:10185000FF7319404FF6FF7303EA02231943018314
:1018600070470021018041808180C18001814181D8
:101870008181C1817047818670470187704781846B
:101880007047028B4FF6F3731A400283028B0A43B0
:1018900002837047028B4FF2FF331A400283028BA0
:1018A0004FF6FF7303EA01231A4302837047828BCA
:1018B0004FF6F3731A408283828B0A438283704708
:1018C000828B4FF2FF331A408283828B4FF6FF7375
:1018D00003EA01231A438283704700000022028832
:1018E0001D4B98420ED01D4B98420BD0B0F1804F4B
:1018F00008D01B4B984205D01A4B984202D01A4B85
:10190000984204D14FF68F731A404B881A43174BF5
:10191000984207D0164B984204D04FF6FF431A4026
:10192000CB881A4302808B8883850B8803850A4BFA
:1019300098420BD0094B984208D00E4B984205D0E4
:101940000D4B984202D00D4B984201D10B7A038681
:101950000123838270470000002C014000340140C5
:101960000004004000080040000C0040001000404F
:101970000014004000400140004401400048014084
:101980004FF6FF71818000210180C180418001728A
:10199000704700004FF480600149086000BFFEE717
:1019A000140C014010B504460021204600F0B4FBA1
:1019B00002D284F0004010BD2046FCE770B5054619
:1019C0000E4614463146284600F0A6FB01D23046AA
:1019D00070BD2146284600F09FFC01D22046F7E763
:1019E0002846F5E710B503460C46191BB1F5004F24
:1019F00001DBA1F5803111F5004F01DA01F58031ED
:101A000001FB02F000B210BD10B586B0044603A879
:101A1000FFF7B6FF4FF6FF70ADF8100003A92046A0
:101A2000FFF75CFF00231A4603212046FFF7E0FD85
:101A30006846FFF757FE0620ADF808000020ADF815
:101A4000000069462046FFF7F7FD0420ADF80000CE
:101A500069462046FFF7F0FD00212046FFF70FFF03
:101A600001212046FFF7B8FD06B010BD017000222D
:101A7000C2600263C262827142710271C263C2714A
:101A80007047F8B506460C461546ADF800408DF88F
:101A9000035003208DF8020069463046FFF7F3F942
:101AA000F8BD00009CB04FF00008FEF795FF01A8BC
:101AB000FEF7BEFCFFF7B0F8074600BFFFF7ACF833
:101AC0000446E01B0A2800D2F8E7E01B142805D3DF
:101AD000082101A8FEF7D2FC274600E00A37FEF7EE
:101AE00025FF064626EA0805B04613A8FFF7C6F804
:101AF00020B9022101A8FEF7C1FC71E0BDF84C003D
:101B000058490880BDF84E004880BDF850008880D4
:101B1000BDF85200C880BDF854000881BDF85600D9
:101B20004881BDF858008881BDF85A00C881BDF8C9
:101B30005C00088213A8418A4A48418213A8818A1E
:101B40004848818213A8C18A4648C18213A8018BE4
:101B50004448018313A8418B4248418313A8818BD9
:101B60004048818313A8C18B3E48C183BDF86C00F7
:101B70003C490884BDF86E0048849DF8040038B1E3
:101B80009DF80400042803D09DF8040005281CD10A
:101B900005F0020008B1FEF709FF05F0040008B1E6
:101BA000FEF7EEFE05F00100B0B1FFF707F938B11E
:101BB000FFF724F88146494601A8FEF743FC0BE0F5
:101BC000012101A8FEF75AFC06E005F0010018B15A
:101BD000092101A8FEF752FC13A901A8FEF75CFC3D
:101BE000DDE91101FFF71EF89DF80400FFF70CF97D
:101BF0009DF804001C4908709DF8050048709DF888
:101C0000060088709DF80700C8709DF808000871EC
:101C10009DF8090048719DF80A0088719DF80B0035
:101C2000C871039888600498C86005980861069890
:101C30004861079888610898C861099808620A98FD
:101C400048620B9888620C98C8620D9808630E98D9
:101C500048630F9888631098C863119808641298B5
:101C600048642BE7B40000206C0000202DE9F04709
:101C700006460F4614461D462A49304600F04CFBE6
:101C800000D2284E2849304600F046FA00D2264EAF
:101C900025B100212548FFF7EEFD03E00021234890
:101CA000FFF7EBFD0021304600F036FB08D221465D
:101CB0001F48FFF7C8F939461D48FFF7C6F912E07B
:101CC0000021304600F028FA08D239461848FFF7BC
:101CD000BAF921461648FFF7B8F904E047EA0401CB
:101CE0001348FFF7B2F90021304600F015FA02D28E
:101CF00086F0004000E0304682460E4900F040FA8F
:101D0000814600F0BDF91FFA80F825B14146074829
:101D1000FFF7B1FD03E041460448FFF7AEFDBDE823
:101D2000F08700009A99593F9A9959BF00080040DE
:101D3000000C01400000C8422DE9FC5F06460F463A
:101D400014463946304600F023FB834659464FF08F
:101D50007F5000F015FA2B49019000F011FA8246ED
:101D6000216800F05DF88146274A2849FFF726FEE2
:101D700005465946264800F003FA82462549304672
:101D800000F0FEF95146019000F04AF881462946DC
:101D900000F046F880462049404600F0BDF904D8DE
:101DA0001E49404600F0B8FA13D91B49404600F0DE
:101DB000B3FA04D20021584600F0AEF909D317490E
:101DC000404600F0A9F905D20021584600F0A4FAD7
:101DD00000D2256059460E4800F0D2F90D49019015
:101DE000304600F0CDF90090019900F019F88246D4
:101DF000216800F015F88146074A0849FFF7DEFD23
:101E0000BDE8FC9F0AD7233CCDCCCC3ECDCCCCBE8C
:101E1000CDCC4C3F000020409A99593F9A9959BF28
:101E200090EA010F48BF81F0004100F1B882421AE8
:101E30003CBF801A89184FEAD0524FF07F4C1CEA01
:101E4000410FA2EBD15318BF9CEA026F00F03B8018
:101E50004FF0004C4CEA00204CEA012121FA03FC2F
:101E600010EB0C0C1ED202F1FF325FEA1C2040EB9B
:101E7000C25038BF70471CF07F0F4FEA400C18BFAC
:101E8000BCF17F4F38BF7047C3F12003994008BFB2
:101E900020F00100BCF17F4F38BF7047A0F1C04077
:101EA00000F035BA4FEA3C00000A40EBC25028BFB0
:101EB0001CF0FF0F4FEA400CE6D018BFBCF17F4F7B
:101EC00038BF7047EAE79CEA026F05D010EA5C0F62
:101ED00008BF00F00040704710B500F0D2F900BF15
:101EE00064FBBE3E401058BFC0F14040491058BF8F
:101EF000C1F140418142EFF3008070474FF47F0C05
:101F00001CEAD0121EBF1CEAD11392EA0C0F93EA0E
:101F10000C0F00F0858090EA010F48BF42F48072F8
:101F200040F4000C41F400002CF07F4120F07F4091
:101F300000B58142A2EB03020FF2081CACEB504E3D
:101F4000C0F100009EF800E04FEA4E0E00FB0EFCD0
:101F500038BF49004FEA2C1C02F5FA020CFB0EF3C5
:101F60004FEACE1E4FEA112C4FEAC1210EEB635E01
:101F700042EB22420EFB0CFC4FEA1C5300FB031108
:101F80004FEA112C4FEA01310EFB0CFC4FEADC4CFE
:101F900000FB0C11C14228BF09184CEB03335DF85C
:101FA00004EB10EB410143EBC250B2F57C0F38BF9C
:101FB000704729D512F0F00F1CBF00F1C04000F0AF
:101FC00000407047008182838485868788898B8C56
:101FD0008D8E8F919293959697999A9C9D9FA0A292
:101FE000A3A5A7A8AAACAEB0B2B3B5B7B9BCBEC0E2
:101FF000C2C5C7C9CCCED1D4D7D9DCDFE2E6E9EC83
:10200000F0F3F7FAFE0000004FEA400C0CF1807C80
:10201000BCF17E4F28BF7047B0F1C04000F077B9E7
:1020200090EA010F0CEAD11348BF42F48072624576
:1020300038BF634507D213F47F0F16D080EA010042
:1020400000F00040704710B500F01BF9097EFC3E1F
:1020500000F005B880EA010000F00040704780EA17
:10206000010000F0004000F052B912F47F0F04BFED
:102070000248704780EA010000F049B90000C07FC3
:10208000C10DD1F19E0206DB4FEA002343F000436D
:1020900023FA02F07047004207D54FEA4001B1F140
:1020A000FE4F02D24FF00000704710B500F0E9F883
:1020B00049922480002070476FEA2000704700009A
:1020C00010F0004148BF4042B0FA80F310FA03F22A
:1020D000C3F19D030BD051EAC35101EB122053060B
:1020E00038BF704700F1010008BF20F001007047C1
:1020F000B0FA80F310FA03F2C3F19D030AD0D905B8
:1021000001EB1220530638BF704700F1010008BFF1
:1021100020F001007047000050EA010C00F113802C
:102120001CF5000F58BFBCF5000F01D48842704762
:1021300007D710F5000F58BF11F5000F15D48842CE
:102140007047894270471CF5000F04D5BCF5000F9D
:10215000F7D5814270474FF0807C1CEB400F38BFB1
:102160001CEB410F01D28142704710B500F089F895
:10217000922449004FF000504FF08051FFF7B2BE5B
:102180004FF47F0C1CEAD0121EBF1CEAD11392EA56
:102190000C0F93EA0C0F00F0478090EA010F48BF44
:1021A00042F480724FF0004C4CEA00204CEA0121CE
:1021B00002EB0302A0FB0113A2F50002002918BFE5
:1021C00043F001035B0028BF4FEA330342EB224296
:1021D0005FEA132C4CEBC2502EBFBCEB436FB2F541
:1021E0007C0F70474FEA036CBCF1004F08BF20F032
:1021F0000100B2F57C0F38BF70470BD582F0FF02AB
:1022000012F5803FC8BF704700F1C040D8BF00F052
:102210000040704700F5000C5FEA4C0C48BF704767
:10222000B0F1C04000F073B890EA010F0CEAD1138E
:1022300048BF42F48072624538BF634504D280EAE9
:10224000010000F00040704710B500F01AF800BF20
:102250008900013E00F007B800F009B85FEA410CC0
:102260005FEA1C6C08D080EA010000F050B85FEA19
:10227000400C5FEA1C6CF6D14FF00040A0F58000E6
:1022800070470EF1020E2EF0030E5EF8044B24424E
:1022900004D44FEA4102B2F17F4F11D84FEA400314
:1022A000B3F17F4F0CD80ED14FEAD07CB2F17F4F03
:1022B0000CEB4C0C0CF1020C08BF4CEBD17C04E095
:1022C0004FF0080C01E04FEAD17C0CEB4C0324FAF0
:1022D00003F404F00704B4F1040C06D20EEB840CF2
:1022E000BDE810404CF0010C6047DFE80CF0070837
:1022F00002024FF00040A0F5800010BD08464200E9
:1023000018BFD2F1807288BF00F0004010BDFF21DD
:1023100041EAD050C005704751EA000C00F113802B
:102320001CF5000F58BFBCF5000F01D48142704767
:1023300007D711F5000F58BF10F5000F15D48142D3
:102340007047894270471CF5000F04D5BCF5000F9B
:10235000F7D5884270474FF0807C1CEB410F38BFA7
:102360001CEB400F01D28842704780EA010081EAED
:10237000000180EA0100FFF7F8BE80F0004090EA1B
:10238000010F7FF554AD81F0004100F008B8000066
:1023900090EA010F48BF81F000413FF548AD421A75
:1023A00004D882F00042A0EB020011444FEAD05260
:1023B0004FF07F4C1CEA410FA2EBD15318BF9CEAAF
:1023C000026F4AD04FF0004C4CEA00204CEA012149
:1023D00021FA03FCB0EB0C0C0FD412F0FE0F36D038
:1023E0005FEA4C001DD5001240EBC25038BF704769
:1023F0001CF03F0F18BF70470BE0A2F101025FEA2B
:102400001C2040EBC25038BF70471CF07F0F18BF34
:102410007047C3F12003994014BF401E20F0010013
:10242000704780084FEA122308BF7047B0FA80FC5B
:10243000A2EB0C02CCF1280C60FA0CF093EA122FFC
:1024400004BF00EBC25070474FEAC3707047130AD5
:102450005FEADC1008BF7047F6E79CEA026F04D021
:1024600010EA5C0F08BF0020704710B5FFF709FFA6
:1024700040DFF63E81F00040704700010203040592
:1024800008090000A4240008000000203C0000000F
:1024900028010008E02400083C000020FC060000A1
:1024A0004401000800A24A040000000000000000EF
:1024B00001020304060708090000000001020304EA
:1024C00001020304060708090204060800000000D0
:1024D00000000000000000000000000000000000FC
:040000050800018965
:00000001FF
